:03000000020006F5
:03005F0002000399
:030003000200B642
:10006200758920758DFD758BFDD28E759850D2994C
:1000720022AD82AE83AFF08D828E838FF01200E7C5
:10008200FC600C8C990DBD00010E1099EA80FB22D8
:10009200AE82AF837C007D00C3EC9EED9F50147A4C
:1000A200787B001ABAFF011BEA4B70F70CBC00E820
:1000B2000D80E522120062C2A090010775F0801245
:1000C200007320A00DD2A090011C75F08012007365
:1000D200800BC2A090012575F0801200739003E896
:0500E20012009280DD18
:1001070053797374656D20496E697469616C697A96
:1001170065640D0A004C4544204F4E0D0A004C45BE
:0801270044204F46460D0A007A
:06003500E478FFF6D8FD9F
:100013007900E94400601B7A0090012F780175A0F4
:1000230000E493F2A308B8000205A0D9F4DAF2754C
:02003300A0FF2C
:10003B007800E84400600A790175A000E4F309D860
:10004B00FC7800E84400600C7900900001E4F0A318
:04005B00D8FCD9FAFA
:0D000600758107120103E58260030200030B
:1000E70020F71430F6148883A88220F507E6A88342
:1000F70075830022E280F7E49322E02275820022D2
:00000001FF
